:020000040800F2
:10000000F00B0020850100081B3100088D2D000831
:1000100000000000000000000000000000000000E0
:100020000000000000000000000000001F31000878
:1000300000000000000000001D3100082131000810
:100040009701000897010008970100089701000830
:100050009701000897010008970100084B15000858
:100060009701000897010008970100089701000810
:100070009701000897010008970100089701000800
:100080009701000897010008970100080000000090
:1000900097010008970100089701000897010008E0
:1000A00097010008970100089701000897010008D0
:1000B00097010008970100089701000897010008C0
:1000C00000F002F800F04EF80CA030C808382418F0
:1000D0002D18671EA246AB4654465D46AC4201D180
:1000E00000F040F87E460F3EB6460FCC0126334264
:1000F00000D0FB1A3343A246AB46184730510000EC
:1001000050510000103A02D378C878C1FAD852078B
:1001100001D330C830C101D504680C6070470000BD
:100120000023002400250026103A01D378C1FBD813
:10013000520700D330C100D50B60704710B5662957
:1001400002D104F02BF910BD002010BD1FB500F046
:10015000ABFD04000020002104F00AF9E0601FBD9F
:1001600010B510BD01F06AF91146FFF7EFFF03F07B
:1001700099FA01F082F903B4FFF7F2FF03BC01F032
:10018000DDF900000748804707480047FEE7FEE723
:10019000FEE7FEE7FEE7FEE704480549054A064B91
:1001A0007047000035310008C1000008F00500204C
:1001B000F00B0020F0070020F0070020FEB50446F9
:1001C00010460D46184373D0A6468C460020A41A4C
:1001D00001469D4167D36646002701243D46B61A75
:1001E0009D4102D313463A462124654676462F04A4
:1001F000360C3E432D0CB61A9D4104D3150C1B043E
:100200002B4312041034654676462F06360A3E43C9
:100210002D0AB61A9D4104D3150E1B022B43120260
:100220000834654676462F0736093E432D09B61A2F
:100230009D4104D3150F1B012B431201241D65465C
:100240007646AF07B6083E43AD08B61A9D4104D3C3
:10025000950F9B002B439200A41C65467646EF0742
:1002600076083E436D08B61A9D411AD392185B4139
:10027000641C16E00018764665464941B71A9D4150
:100280000191009009D36046B11A98418E46844688
:10029000009801990025401C6941DD0752082A4356
:1002A0005B08641EE6D57246634603B0F0BDFFE707
:1002B0002046284307D00020C0430146C046C04620
:1002C00022462B46F1E700200146F7E70FB41CB5A4
:1002D000074B06AA7B4469460090059800F0CBFCCA
:1002E0000020694600F0DAFC1CBC08BC04B01847CA
:1002F000C5090000F3B50446002081B02062204605
:10030000E168884700287AD0252802D06268A16871
:1003100071E0E16820460025884706460020E0613C
:100320000746A0612A2E0AD0304604F019F80028AA
:1003300027D0B8000019303E0090866119E002987D
:10034000BA00121902C8916102902046E1688847FC
:10035000012F064617D1E06900281FDA20208543C7
:100360001CE000980A2180694843009980193038C0
:1003700088612046E1688847064603F0F1FF0028BF
:10038000EFD1012F0AD02E2E08D12046E1688847F0
:100390000646202005437F1C022FC3DBA0690028EE
:1003A00003DA4042A06101200543E80701D0102094
:1003B0008543002E23D030464138192803D8012028
:1003C000C00205432036204625603146029A154674
:1003D000FFF7B4FE00280BD0012806D0ED1DE80879
:1003E000C000083002908AE709E02D1D029586E7DB
:1003F00062683046A1689047206A401C7EE7206A08
:10040000FEBD01E004C0091F0429FBD28B0701D502
:100410000280801CC90700D00270704700290BD0F1
:10042000C30702D00270401C491E022904D383076F
:1004300002D50280801C891EE3E70022EEE700223D
:10044000DFE70000002203098B4273D3030A8B42CB
:1004500058D3030B8B423CD3030C8B4221D312E0C5
:1004600003460B437FD4002243088B4274D3030915
:100470008B425FD3030A8B4244D3030B8B4228D3B6
:10048000030C8B420DD30902FF2212BA030C8B42DC
:1004900002D31212090265D0030B8B4219D300E07C
:1004A000090AC30B8B4201D3CB03C01A5241830B01
:1004B0008B4201D38B03C01A5241430B8B4201D3B1
:1004C0004B03C01A5241030B8B4201D30B03C01ADA
:1004D0005241C30A8B4201D3CB02C01A5241830A54
:1004E0008B4201D38B02C01A5241430A8B4201D383
:1004F0004B02C01A5241030A8B4201D30B02C01AAD
:100500005241CDD2C3098B4201D3CB01C01A524113
:1005100083098B4201D38B01C01A524143098B429C
:1005200001D34B01C01A524103098B4201D30B0185
:10053000C01A5241C3088B4201D3CB00C01A5241AA
:1005400083088B4201D38B00C01A524143088B426F
:1005500001D34B00C01A5241411A00D20146524108
:10056000104670475DE0CA0F00D04942031000D327
:10057000404253409C46002203098B422DD3030A7C
:100580008B4212D38901FC2212BA030A8B420CD38C
:10059000890192118B4208D3890192118B4204D3B5
:1005A00089013AD0921100E08909C3098B4201D335
:1005B000CB01C01A524183098B4201D38B01C01A6F
:1005C000524143098B4201D34B01C01A52410309E6
:1005D0008B4201D30B01C01A5241C3088B4201D395
:1005E000CB00C01A524183088B4201D38B00C01A42
:1005F0005241D9D243088B4201D34B00C01A524119
:10060000411A00D201465241104663465B1001D3A5
:100610004042002B00D54942704763465B1000D32F
:10062000404201B50449002802DC491C084000E0B2
:100630000846C046C04602BDFFFFFF7F70477047B7
:10064000704700000121C9050123411842001B0623
:10065000D3185B0E0AD0C1100722D20689184007B2
:100660005242D14201D5520089187047090208D57B
:100670000146002A03D0C10FC90700207047104669
:100680007047420202D00020024970470721090545
:100690000143F4E70000F87FF0B5FF252D04C609FB
:1006A000C209FF2704462E400137CB093E4348408C
:1006B0002A402B400746002A6BD0002B69D0AA4263
:1006C00067D0AB4265D0002800DA32460125ED053F
:1006D00029432C4309022002090AD21A4B0C7F2419
:1006E000E31A434C000A7C44E35C7D242404121981
:1006F00014145B00A218884201D3521C00E0400091
:1007000049420C465C4324115C43DB016415E31849
:10071000040A5C43C502200D0C4644436419250AB3
:100720005D432303EC0C0D46654300030019EB18F1
:100730004C42A34201D35B18401CD4052018002B67
:1007400007D05B00C91804D3401C002901D1400820
:1007500040003F2189048A4209D3002A08DC11069F
:10076000090F04D0032149074018C00FC007F0BD8E
:1007700001224100120689187F2252069142F6D2C8
:1007800005214907C84201D59010F0BDFF20C005E2
:10079000F0BD002F00DA32461648AA4207D2AB421B
:1007A00005D21902090E17D0F80FC007F0BDFF25BA
:1007B00063002D06AB42F9D84900A942F6D8AB42F6
:1007C00001D1A942F2D0A94201D1002101E061008A
:1007D0004908D0050843F0BD1102090EFBD0FF20E7
:1007E0000243D005F0BD0A460146104654E700001A
:1007F000C23C00000000C07F1F22030C02D10F2268
:1008000000041CD0030E01D10002083A030F01D1ED
:100810000001121F830F01D18000921E002801DB0E
:100820004000521ED2055118021251181922904050
:1008300004D3491C002801D14908490008467047E3
:10084000C10FC90700D04042012292071143D3E7EC
:1008500001218907D0E70000FFB50C461E468FB086
:1008600003CA089009914F007D0D00D16D1E002133
:1008700008460020C0460321099A89050840002A3D
:1008800003DA8200801840080840800D01280A9091
:1008900002DD0020C0430A90089807430DD0F048BD
:1008A000F049281848430714189800281DD07542AD
:1008B000291E1DDD0A9842421BE01898012802D02B
:1008C0000020302104E00020F24305E02154401CC8
:1008D000B042FBDB30460022189B002121540F99C7
:1008E0008B600A60486013B0F0BDBD1B6D1CDFE774
:1008F0000A9A002900DA69420BA800F05BFA0BABF8
:1009000007CB03AB07C30899099800F0BFFA6B4601
:1009100007C30146D4480918002D00910BDDD249C8
:1009200003980A9A49424018002303A90390684695
:1009300000F01CFD08E003990A9A0023081803A997
:100940000390684600F0BCFC6B4607C30004000C33
:1009500003D00020C043410800E01046189A002A46
:1009600003D00022009215461EE0751E05D400F04B
:100970009FF9303262556D1EF9D501220843079662
:1009800002D000227F1C04E02078302801D1002210
:100990007F1E002A069787D01EE0112D07DA00F08F
:1009A00087F9303262556D1C02460A43F5D108437F
:1009B00003D00098002819D00EE00021681E05E041
:1009C000235C625C63542254401E491C8142F7DB65
:1009D000A81B401E07950690079A18990020A0545E
:1009E0000F98079B069A81600CC07CE711260020B7
:1009F000189059E7D21DF0B50D460446D10893B0C2
:100A0000C90003C90C900D9103F094FC02460D98A7
:100A1000C00F01D02D2007E02068810701D52B20D1
:100A200002E04007C00F4001032A0F9001D0072ABF
:100A300005DB03462946204600F078F90EE12078D0
:100A4000800601D5E76900E006272846652D04D019
:100A5000662814D0672D69D12DE00020112F009059
:100A600001DB112300E07B1C0CAA03A910A8FFF7EF
:100A7000F3FE1199002610987D1C0E9142E0012092
:100A80003B460CAAC0070B900120009003A910A8B8
:100A9000FFF7E2FE119D12981099002600280E958E
:100AA00001D1781C0D18781B02D446427D1C761E9D
:100AB000E81B00903AE0012F00DA01270020112FF7
:100AC000009001DD112300E03B460CAA03A910A809
:100AD000FFF7C2FE11993D46109800260E9121782D
:100AE00009070BD40E99A94200DA0D4603A9012D7E
:100AF00004DD4A19203AD27F302A06D0B84201DA02
:100B0000011D04DA012100910FE06D1EEFE70028BE
:100B100002DC86192D1A03E0411CA94200DD0D46B6
:100B2000801B401C00900120C0070B90207800071C
:100B300005D40098A84202DB0020C043009069461B
:100B40000020C8720B98012102AF0337C907884201
:100B500025D0022010902B2011900B9800280BDA42
:100B600040420B902D20119006E00B9800F04EFCB7
:100B700030317F1E0B9039701099481E002910905B
:100B8000F3DC0B980028F0D111987F1E3870208874
:100B9000000501D5452000E065207F1E387001A8C2
:100BA000C01BC01D0B900F98002800D001204119D8
:100BB0000098C01709180B980818A169081A401E58
:100BC000A0612078C00602D42046C046C0460F98D7
:100BD000002805D06268A1689047206A401C206206
:100BE0002078C00625D52046C046C04621E0002E0C
:100BF00007DB0E98B04204DD03A86268805DA1683F
:100C000002E06268A16830209047206A761C401C90
:100C100020620098401E002800900AD100F044F89D
:100C2000C06862680168405CA1689047206A401C07
:100C3000206228466D1E0028D9DC07E062683878FB
:100C4000A1687F1C9047206A401C20620B99481EB7
:100C500000290B90F2DC2046C046C046032042E645
:100C600001FCFFFF104D0000E1DFFFFF01694A1C9E
:100C700002610878704700B58FB00291002105919C
:100C80000549019379440391114604906846FFF7A2
:100C900031FB0FB000BD0000E5FFFFFF0A681070D8
:100CA000521C0A607047000000487047380000205E
:100CB0000B4670B5024689078008084319469D080F
:100CC000141AA94125090807054308092C194841A8
:100CD000250A01060D43010A2C194141200C0D047F
:100CE00028430D0C00194D41002140194D41C00809
:100CF00069070843E908840F8D0025438400241800
:100D00004D4124196D41121BAB4107E00925ED430C
:100D10002C11521963410024401C61411C460A25D4
:100D20000026551BB441F1D270BD0000F8B51F4636
:100D3000044601230068DB02032601461840072A07
:100D400005DB002801D017A506E017A504E0002860
:100D500001D016A500E016A5102081432160A069EE
:100D6000C01E002FA06101D0401EA0612046C046D9
:100D7000C046002F09D038466268A1689047206AB3
:100D8000401C2062C01C206206E0206AFAE762680C
:100D90002878A1686D1C9047761EF8D22046C04680
:100DA000C046F8BD4E414E006E616E00494E460091
:100DB000696E6600F7B516468AB0334878446C46CB
:100DC00003467C33C06F5A689B680DC42E48784434
:100DD000763003AC0DC80DC43720C0010818372188
:100DE0001B30FFF73DFB05460C46803D1B3C02D502
:100DF0006442012000E000200027099010E0E00795
:100E00000CD00C2020497843794432464C394118A3
:100E10006846012300F054FA6B4607C364107F1C38
:100E2000002CECD1184F7F442E3F16E0E80712D07B
:100E30002001C0190EC80691089307920068F0427D
:100E400001D1981908903246012306A903A800F0A1
:100E500037FA03AB07C36D10641C002DE6D1099867
:100E6000002806D032466946012303A800F07EFA26
:100E700005E001233246694603A800F021FA0A9BE7
:100E800007C30DB0F0BD00002C3600000346400043
:100E90000A4610B5400D0BD00121C9070F24A4024A
:100EA00000191C0364082143540D2143D20207E0BA
:100EB00000210120F2E7D40F490021435200401ED7
:100EC0000029F8DADB0FDB07184310BDFFB50D462C
:100ED000144685B04868516803F014FA00910190F7
:100EE000A868A16803F00EFA02910390A8686168EF
:100EF00003F008FA029A12188242029201D20120EB
:100F000000E00020019A0B18D2180028019202D0AC
:100F10008A4202D903E08A4201D2012000E0002087
:100F20000099081800906868A16803F0EBF9029A2C
:100F300012188242029201D2012000E00020019AA0
:100F40000B18D2180028019202D08A4202D903E07D
:100F50008A4201D2012000E0002000990818009088
:100F60002868216840004900400849084018FA49AB
:100F7000471814E001994000C90F084300900198F8
:100F800002994000C90F084301900298039940005C
:100F9000C90F08430290039840007F1E03900098F9
:100FA0000028E7DA0898002801D0EC4E00E000267F
:100FB000B74201DA012000E00020002804902AD086
:100FC000F71BF806C00E15D0029B2021091A039AC0
:100FD0008B401A430392029A019BC2408B401A43F2
:100FE0000292019A009BC2408B4000991A430192E1
:100FF000C14000917B110DD06F460320C11A03D56B
:1010000000218200B95003E08A008100BA587A506A
:10101000401EF3D5374603980299002800D00120DE
:10102000014308980291002808460CD0002800D0FF
:1010300001200199019A490508430121D20AC902F8
:10104000D202019200E001210E9B0122D207012B66
:1010500002D0002B03D013E0002807D120E09042FB
:1010600004D890420CD1019B0B4209D0019B591826
:10107000019105D10099491C009101D17F1C00927A
:1010800000280DD0102108460020C04604980028F2
:1010900006D00F98002803D0082108460020C0463B
:1010A00028682168019B009A4840C10F0598C9072C
:1010B00039430EC009B0F0BDFFB587B0099A089852
:1010C000089953689268406889689646002203939D
:1010D00017469446089A12685300099A5B081268EA
:1010E000520052089A1A9E4BD4180A9A002A01D02C
:1010F000352200E040220692002201231546049288
:10110000DB07059324E0002D05D175460346039EB9
:101110004D1BB34109D375466646039B491B049D8D
:101120009841059B7519AC465F4163463B4308D027
:10113000059B049EDD0776082E435B080496059305
:1011400001E0521E641EC50FED0749184041521CB4
:10115000069B9A42D7DB002D04D17546039A6B1A81
:10116000824101D203200CE0039A0B466B404240BF
:10117000134303D0014303D0012002E0022000E02A
:101180000020614601910021009702910A990029EF
:1011900005D0614640020143704B019102E0800797
:1011A000002302909C4201DA012000E000200700A9
:1011B0003AD01A1BD006C00E15D0029D2021019CEA
:1011C000091AC5408C402543029C8C4000D0012464
:1011D0002543019C0295009DC4408D4000992C43FD
:1011E0000194C140009154111DD06D46022100228E
:1011F00002290CD10320001B07E0002804DB860035
:10120000AE59002E00D00122401C0328F5DB081B3C
:1012100002D588002A5004E08000285810438A0034
:10122000A850491EE3D51C460A98002802980CD005
:10123000002800D001200199019A490508430121A5
:10124000D20AC902D202019200E00121109B0122C0
:10125000D207012B02D0002B03D013E0002807D1C6
:101260001FE0904204D890420CD1019B0B4209D060
:10127000019B5918019105D10099491C009101D198
:10128000641C009200280CD0102108460020C046A3
:10129000002F06D01198002803D00821084600200E
:1012A000C04608980999019A009B0068096848405F
:1012B000C10F0798C907214382600AC00BB0F0BD77
:1012C00000B585B0019300920A460146002302A8AA
:1012D000FFF7FCFD02A807C805B000BDFFB50A4630
:1012E0001F4685B00799019301230091014602A88A
:1012F000FFF7ECFD02990398049ECA0F4900D2073C
:1013000000920F22490892028C1A0021002800DB6B
:101310000C46450013486D08844214D3079A002AEE
:1013200004DA441E0026104DF64302E004460D4642
:101330000E46102108460020C046002F03D004218D
:1013400008460020C0462005E90A084300990843E2
:101350006905F20A1143ADE602C0FFFF013C00003F
:10136000FF3F0000FF070000FFFFFF7F00B585B0D3
:10137000019300920A460146002302A8FFF79CFE53
:1013800002A807C8A8E7FFB50A461F4685B0079917
:10139000019301230091014602A8FFF78DFE0299F7
:1013A0000398049ECA0F4900D20700920F224908F1
:1013B00092028C1A0021002800DB0C4645001148DF
:1013C0006D08844214D3079A002A04DA441E0026CA
:1013D0000D4DF64302E004460D460E461021084628
:1013E0000020C046002F03D0042108460020C0463C
:1013F0002005E90A0843009908436905F20A1143E8
:1014000058E60000FF070000FFFFFF7F014680084D
:10141000081A02091018020A1018020C1018C00845
:10142000820012185200891A01E0401C0A390A2968
:10143000FBD2704700487047180000207546FFF740
:10144000F9FFAE46050069465346C008C000854610
:1014500018B020B5FEF7A0FE60BCB64600260027F7
:10146000C0C5C0C5C0C5C0C5C0C5C0C5C0C5C0C554
:10147000403D490849008D46704710B50446C046B6
:10148000C0462046FEF777FE10BD000082078B079E
:101490009A423FD170B5920F0AD0032402780B789C
:1014A000401C491C002A33D09A4231D12042F5D148
:1014B000214EF40104C808C9951B9543254018D155
:1014C0009A420FD104C808C9951B9543254010D1F5
:1014D0009A4207D104C808C9951B9543254008D1F5
:1014E0009A42E7D012BA1BBA01209A4200D2404277
:1014F00070BD12BA1BBA2DBA18241000E0401900B2
:10150000E140401A05D12E00E64002D1083CF4D15A
:10151000D01A70BD02780B78401C491C002A09D0F3
:101520009A4207D102780B78401C491C002A01D04E
:101530009A42EFD0D01A70470101010101491820E9
:10154000ABBEFEE726000200704780B5102000F019
:1015500033F880BDB0B5044600F004F90546601CC0
:1015600002D004480078041900F0FCF8401BA042A7
:10157000FAD3B0BD0000002010B5102817D100F03C
:10158000F1F80B4CA060606800280ED0A06861687C
:10159000401AE060E068002807D0E068FFF758F9DB
:1015A00001460448FFF778F82061A068606010BD2C
:1015B000780000200080BB4580B504490A680242DB
:1015C00002D00860FFF7D8FF80BDC0461404014078
:1015D000F0B58AB0019009910A68002A00D1B7E0FD
:1015E0005C48019B834201D0062000E005200B21CE
:1015F00009075B180A21CB410093052B00D300900B
:101600000026354634460BE011433960641C0998C6
:1016100002681046E040B61C2D1D002800D197E05E
:1016200001210846A0400240F0D0029404920591A6
:10163000089503252946B140CA43099934464E68A6
:1016400033462B405F1E012F07920696039410D855
:101650000F4601998D681540FF68A7402F438F60A2
:10166000F506ED0F029CA5404F6887432F434F605E
:1016700008E0032B029C05D12B46019F089D049A8C
:10168000039E22E0019FF8680799084009998D6838
:10169000039EB5400543FD60022B089D049A14D1BA
:1016A0001C2028400F218140E3089B00FB18069373
:1016B0001D6A8D43099B196981402943089D06983D
:1016C00001625868032306900340B34038680799C5
:1016D00008401843386006988003800F059B95D01A
:1016E0001E490868184308600C2028400F218140DB
:1016F000032325469D431A4FEB598B4300998140A4
:101700001943E951144FB96809984068C30201D5DB
:10171000114300E09143089DB960F96883020AD53E
:101720001143F960796883030AD491437960396879
:10173000C0030BD568E79143F96079688303F4D55A
:10174000114379603968C00300D55DE791435CE7D8
:101750000AB0F0BD001C00500004014034100240EB
:1017600008000140EF4800687047C046B0B5024627
:10177000034640335C780220202C17D11C78012CC2
:1017800014D024205870106802680124A24302601B
:10179000220305689543056002680A4302600168F8
:1017A000214301600020187020215970B0BDB0B5F0
:1017B0000246034640335C780220202C17D11C7867
:1017C000012C14D024205870106802680124A24310
:1017D00002600F2212020568954309022943016045
:1017E0000168214301600020187020215970B0BDAC
:1017F000F0B581B0002822D004460546403568780F
:10180000002804D100202870204600F057F9242039
:1018100068702068026801218A4302600F22120664
:101820006368934303618368194A13408360A36824
:10183000E668012E06D1CE03334383600AE001201F
:1018400001B0F0BD2127BF023B438360022E01D1CE
:10185000CB02436043680F4E1E434660C36813408B
:10186000C360226963691343A26912021A43C2600A
:10187000E269236A1343036002680A43026000209E
:101880006064202169702063A87001B0F0BDC0467B
:10189000FF7FFFFF00800002F0B589B005460646D5
:1018A000403674780220202C09D10E9C002C08D0E0
:1018B0000F9F002F05D006973778012F06D109B06A
:1018C000F0BD01204102696409B0F0BD03930292AA
:1018D0000591012004903070FFF744FF08902868BC
:1018E0008169090445D41099079121217170402123
:1018F000B17000276F64069969856C626F636949EE
:10190000059A0A400399C9B20904059289184268E8
:10191000654B1340C918654A8918416028460799E4
:10192000089C224601F0A6FB00281ED106972868D5
:10193000039901290BD00299090A81622846079967
:10194000224601F097FB0028069F0ED128680299D5
:10195000C9B28162079B0094802100242846224658
:1019600001F0D6FA0028069F1ED03770049809B0FF
:10197000F0BD0498C70302E081693942B3D0FFF794
:10198000F1FE0899411A28681A29F5D3816939426C
:10199000F2D0686C202108436864717000203070B8
:1019A000B070049809B0F0BD0394059C0120049028
:1019B0004206688D000A3E4B3E49069207D02868D1
:1019C0000A46416817461140021DFF200DE0688D50
:1019D0002B6802935B680F460B40C1B209041943A0
:1019E000029B1B1D02931346029A19432143116067
:1019F0002885079B10E0688D288529684A683A4049
:101A0000C0B200041043091D069A079B10432043EF
:101A10000860688D00282FD028461946089A01F0E2
:101A200029FB002825D12868696A0A788262688DB6
:101A3000401E6885481C6862288D401E2885698D77
:101A40000029079BE5D00004E3D10898009080218D
:101A50000022284601F05CFA00280AD1688D000AAD
:101A6000C9D0FF202885296848683840091D104AD8
:101A7000CBE7049809B0F0BD28461946089A01F052
:101A8000B6FA0028049800D019E728682021C1611F
:101A90004268094B13404360717003983070B07016
:101AA00009B0F0BDFF030000009800FC0020000119
:101AB0000000FF01009C00FC00E800FE10B586B0AD
:101AC00000681149884201D006B010BD0F4C206853
:101AD00004210843206020680840009007200590FA
:101AE000032004900021039112210291019000989B
:101AF000074801A9FFF76CFD01208007E168014359
:101B0000E16006B010BDC046007800402C100240D5
:101B1000000800501D48007802490A681018086043
:101B20007047C046EC05002080B508480168402297
:101B30000A430260032000F00BF8002801D00120C6
:101B400080BD00F027F8002080BDC0460020024084
:101B500070B504467D20C0000C4E317802F0D7FAF3
:101B600001460B48006802F0D2FA00F095FD01250D
:101B7000032C08D8002806D10025E84321462A4630
:101B800000F020F87460284670BDC04600000020B8
:101B90001000002004480168012211430160110770
:101BA00042680A434260704734100240002805D45E
:101BB0001F21084001218140014801607047C04653
:101BC00000E100E0002805D40322034693430A4ABB
:101BD0009A1803E00C220240064BD2188007C00E70
:101BE0008901C9B28140FF238340106898430843AC
:101BF0001060704714ED00E000E400E0F0B589B03B
:101C0000066801252F02EA0211462031884B0E4258
:101C10007DD0059208902907143B1868084004906D
:101C200002D118680843186002930391814C206820
:101C3000384211D1206838432060FFF793FD0646F3
:101C40002068384208D1FFF78DFD801B6428F7D942
:101C50000325284609B0F0BD0326340574484C38E6
:101C6000069001682140089B586802462240009671
:101C7000360491420AD19A68224091423246069E29
:101C80000DD001461140914206D008E00146314096
:101C9000B1423246069E02D131688903D9D40194FB
:101CA000634B59680792114021D0079A1040814236
:101CB00003D00898007880060AD408988068079AAC
:101CC0001040814213D008980068059908420ED050
:101CD0005868E9045A680A435A605A688A435A6045
:101CE0000146079A91435960384200D08DE0089828
:101CF000066805990E425AD1B106019C6ED404992A
:101D0000002904D1029C2168039A91432160F107C4
:101D10000DD1B10713D4710719D4310720D43E4235
:101D200027D171062ED40025310692D535E01968E9
:101D300003229143C2680A431A60B107EBD51968C0
:101D40000C22914302690A431A607107E5D5032109
:101D500089021A688A434169114319603107DED547
:101D6000032109031A688A438169114319603E42BD
:101D7000D7D0032109041A688A43C1691143196045
:101D80007106D0D5012189061A688A43416A114338
:101D900019600025310600D45BE703218A04196825
:101DA0009143006A08431860284609B0F0BD826874
:101DB0001146079C2140A1420AD101980240032309
:101DC0001B05069D2C689C43194B089814432C60F6
:101DD0005A680A435A60B106019C90D54268114680
:101DE000079D2940A94209D1224003231B05069DD6
:101DF0002C689C430E4B089814432C605A680A4385
:101E00005A600499002982D17CE7FFF7ABFC0546B4
:101E1000904C074B5868800500D568E7FFF7A2FC97
:101E2000401BA042F5D9009D284609B0F0BDC04630
:101E30004C10024000700040F0B583B002900028C2
:101E400046D00E4682480068012101910840B04208
:101E500016D27F4908680125A843304308607D4CAD
:101E6000FFF780FC07467A4800682840B04207D058
:101E7000FFF778FCC01BA042F5D9032003B0F0BDEA
:101E8000029800688107814D06D52968F0229143A8
:101E9000029A92680A432A60C0071CD16C48006805
:101EA00001273840B04225D969490868B84308601D
:101EB000684CFFF757FC054665480068C00719D015
:101EC000FFF750FC401BA042F6D9032003B0F0BD41
:101ED000012003B0F0BD0298426829460C39012A5E
:101EE00032D0032A35D0022A39D1096889030198F2
:101EF00033D538E0029800684107644C07D50721C4
:101F0000090222688A430299C968114321600007C7
:101F100008D50720C0022168814302980069C000EB
:101F20000843206021680807820F73487A441279B9
:101F30005200974401617F683804214608390968D6
:101F40000904490F884075E009684907019804D5DC
:101F500009E009688901019805D403B0F0BD09685A
:101F600089050198F9D5296803200190814311431F
:101F70002960FFF7F7FB074602984068354C0328B5
:101F800011D002281DD0012829D128680C21014038
:101F9000042900D182E7FFF7E5FBC01BA042F4D97A
:101FA000019803B0F0BD28680C2101400C2900D134
:101FB00074E7FFF7D7FBC01BA042F4D9019803B028
:101FC000F0BD28680C210140082900D166E7FFF721
:101FD000C9FBC01BA042F4D9019803B0F0BD28682A
:101FE0000007800F00D159E7FFF7BCFBC01BA042E0
:101FF000F5D9019803B0F0BD20460C380068C00642
:1020000012D53F4816E08A02120F3C4B9A5C090237
:10201000890F491C2368DB0309D420460C3800686B
:10202000C00603D4374802E0364803E03448504342
:1020300002F06DF821680906090F074A515CC84093
:102040001149086005480068FFF782FD03B0F0BD44
:102050000020024088130000804400080400002093
:1020600009480068094909684905490F084A515C4F
:10207000C840704704480068044909688904490F4A
:10208000034A515CC8407047100000200C10024009
:102090009044000810B5834AD1680807830F16489A
:1020A0007B441B795B009F440108070D012000045D
:1020B00051680904490F884010BD1068C00613D547
:1020C0000F4810BD8B021B0F0C4CE35C0902890FFB
:1020D000491CD468E40303D41068C00606D4094838
:1020E000584302F014F810BD064810BD0448584388
:1020F00002F00DF810BDC04600127A00F45100083D
:1021000000093D000024F400F0B589B0002856D045
:10211000644EF1680C220A400692012105910904DF
:10212000F76804910F4007900078C00710D0069818
:10213000082806D006980C2800D0D5E0002F00D142
:10214000D2E03068800303D507984068002851D05A
:1021500007980078800735D407980078C0064CD4DB
:1021600007980078000766D407990878400700D5DB
:102170009AE00878800600D521E10798846A002C4F
:102180001AD006980C2800D06DE1012C32D0F068EE
:10219000049A0240079BD96A8A422BD10F218904F5
:1021A00001401A6B914225D1032189050840596BE2
:1021B0008842059800D059E2002009B0F0BD012006
:1021C00009B0F0BD079BD868810604D5316820228C
:1021D0001143316090430699042906D006990C29D1
:1021E00000D0ACE0002F00D0A9E03168490739D514
:1021F000002837D1059809B0F0BD0698002800D115
:10220000B3E030680799C969002900D107E10121CD
:102210000A02104330604C02FFF7A4FA054630680A
:10222000204200D00EE1FFF79DFA401B0228F6D9AC
:10223000032009B0F0BD306D07994969002900D12C
:10224000DCE0012108433065FFF78CFA0546306D6C
:10225000800789D4FFF786FA401B0228F7D90320AC
:1022600009B0F0BD1F21090272688A431969090289
:102270001143716031680922914301433160F16873
:102280000807820FFA4852007A4492885200974415
:1022900003002001DE01260170680004410F04984C
:1022A0008840D4E10010024001221107B06B0840C1
:1022B000029002D1B06B0843B06301910392140203
:1022C000F24F3868C00525D4386820433860FFF7DE
:1022D00049FA0546386820421CD1FFF743FA411BF2
:1022E00003206429F6D9C1E10798406805994C0498
:1022F0000499884209D005210904884200D0C9E028
:1023000005988004316801433160306804990843BE
:102310003060CFE007988068002800D122E10521D5
:1023200009028842039A00D133E1A04200D134E18E
:10233000306DA04330659102306D88432FE13168E4
:10234000002800D1DDE00922914301433160FFF70D
:1023500009FA05463068400700D5F9E0FFF702FAB0
:10236000411B03200229F5D980E130688005079BD5
:1023700003D5D869002800D13CE7072040037168E5
:102380008143586A01437160FF21090672688A43DC
:10239000196A090689187160400B04998140F06838
:1023A0000006000FB64A105CC140B6480160B6484E
:1023B0000068FFF7CDFB002800D057E1D0E6B068F9
:1023C00007998969002900D1ACE001210843B06078
:1023D000706B084370634803AE490A6802430A60A1
:1023E000FFF7C0F90546B068800700D5C5E6FFF7DE
:1023F000B9F9411B03200229F5D937E101218843AE
:102400003065FFF7AFF90546306D800700D4ABE6C5
:10241000FFF7A8F9411B03200229F5D926E1012184
:102420000A02904330604C02FFF79CF90546306881
:10243000204200D194E6FFF795F9411B03200229C1
:10244000F5D913E10720400371688143079A506A68
:1024500008437060FF20000671688143106A00061F
:10246000401870607CE6012738063168814331608E
:10247000FFF778F90546022C00D0AAE07F06306805
:10248000384200D1C1E0FFF76DF9411B032002295A
:10249000F5D9EBE03168049A91433160316811401D
:1024A000089108990599890432688A4332600028A6
:1024B00000D19CE0FFF756F905463068204200D075
:1024C00046E6FFF74FF9401B6428F6D9032009B010
:1024D000F0BD3068C00600D487E06748B7E08A02E4
:1024E000120F644B9A5C0902890F491CF368049C23
:1024F000234200D0A8E03068C00600D5A3E05F48C2
:10250000A2E0012081433160FFF72CF905463068D5
:10251000400700D420E6FFF725F9411B03200229DC
:10252000F5D9A3E001218843B060480359490A68FE
:1025300082430A60FFF716F90546B068800700D4A9
:102540001BE6FFF70FF9411B03200229F5D98DE0A7
:102550001F20000271688143079800690002084348
:102560007060F9E5306DA0433065039A9002316DDB
:10257000814331655402464FFFF7F4F80546306D4C
:1025800020421CD0FFF7EEF8411B0320B942F6D9D8
:102590006CE09002316D01433165306D2043306550
:1025A00054023B4FFFF7DEF80546306D204206D15E
:1025B000FFF7D8F8411B0320B942F6D956E002983C
:1025C0000028079900D0D4E5B06B019A9043B0631E
:1025D000CFE57C063068204200D1EDE5FFF7C2F878
:1025E000411B03200229F5D940E024482FE0FFF7E2
:1025F000B9F805463068204200D1A9E5FFF7B2F8E6
:10260000411B03206429F5D930E0FD200004F16866
:102610008143079B2C330DCB084310431843F060D4
:102620002748401C316801433160FFF79BF804469E
:102630003068384200D0BFE5FFF794F8011B032053
:102640000229F5D912E00C48504301F060FDF16811
:102650000906090F0A4A515CC8400A4908600A483D
:102660000068FFF775FA002800D175E509B0F0BDE4
:1026700000127A00F451000800093D000024F40023
:10268000804400081000002004000020007000407A
:102690008813000020000140401E010E01D00120DF
:1026A00070470749074A5060074803680B400321F9
:1026B0008907591801600020906007211160704758
:1026C000FFFFFF0010E000E020ED00E010B5382231
:1026D000825C012A01D1022010BD02463832022359
:1026E0005370006843687024A3430C681C438368DC
:1026F00044603B4CA04207DC0124A407A04209D05F
:102700003A4CA04206D00AE0364CA04202D0364CE9
:10271000A04204D18024A34349681943816000206A
:1027200010700121517010BDB0B5002819D00446B9
:10273000054638356878002804D1002028702046E6
:1027400000F056F80220687020680168F34B984248
:1027500009DC0122920790420BD0F34A904208D044
:1027600018E00120B0BDEE4A904202D0ED4A9042FE
:1027700010D170229143A2680A4321463A3198420F
:102780000DDC01239B0798420FD0E74B98420CD0F9
:1027900013460FE00A4621463A319842F1DDE04BFC
:1027A000984202D0DF4B984217D103231B029A4371
:1027B000236913438022934362691A430260E268EB
:1027C000C26262688262012242610A710A704A70C2
:1027D0008A70CA706A700020B0BD1346EAE7C0462E
:1027E000FF070140001401400008014000040040C0
:1027F00080B586B001218A070068904201D006B0FA
:1028000080BD0D48C2680A43C26002680A43026084
:10281000006808400090002004900390022002907D
:1028200020200190052005900007009901A9FEF7DE
:10283000CFFE06B080BDC0462C100240F0B5382255
:10284000825C012A01D10220F0BD02463832022307
:102850005370504E3346773B0468A0681840A06020
:102860000D6800234F2D1EDC1F2D35DD202D37D0A8
:10287000302D35D0402D00D086E0206A256A012613
:10288000B5432562A569F026B543CE6836012E43CF
:10289000A6610A25A843496801432162A06847212F
:1028A0000143302069E06F2D26DD01204703BD4242
:1028B00040D00003854218461AD0702D64D1A0681C
:1028C00030404D688E68C9682E4309023143014388
:1028D000A160A068772139E0002D01D0102D53D1DF
:1028E000A06870218843054307202843A06018464C
:1028F000137001215170F0BD502D29D0602D43D1AE
:102900001020C043256A054025620F252D03A669C6
:10291000AE43CD682D033543266AA561A025AE439D
:102920004968090131432162A16867250D430540CB
:10293000A56024E0A56835404E688F68C9683743B4
:10294000090239432943A1608003A168014315E0CE
:10295000206A256A0126B5432562A569F026B5439C
:10296000CE6836012E43A6610A25A8434968014373
:102970002162A0685721014320208143A1601846AD
:10298000137001215170F0BD0120137001215170AD
:10299000F0BDC046FF00FFFFF0B582B03823C35C36
:1029A000012B02D1022002B0F0BD034638330224CD
:1029B000E241032A1AD8C0467A4412795200974459
:1029C000011A3E5F0268146A01208443146296690A
:1029D000CC68019430C90095156A824F0839BA4213
:1029E00074DC8707BA4277D0814F73E00120002161
:1029F000197002B0F0BD0068026A1024A24302629E
:102A00004A681202444C1440CA68120392B2121966
:102A1000F32424028569A5431543026A85610C6885
:102A20002401A0252C40AA4312190262032292021B
:102A300084699443846189680902183063E0012243
:102A400012020068046A944304624A68F024A243B4
:102A5000CC682401E4B2A218C469F325AC43144342
:102A6000026AC461052464020D682D022540A24358
:102A700052190262C2690C24A243C261896823E030
:102A8000012212030068046A944304624A68120235
:102A9000214C1440CA68120392B21219F324240282
:102AA000C569A5431543026AC561052464030D6821
:102AB0002D032540A2435219026203229202C469E7
:102AC0009443C461896809021C301CE0464FBA4235
:102AD00002D0464FBA4202D10320864300980643F3
:102AE00010461830F027BE43019F3F01FFB2F61990
:102AF00096610A263440B5432C19146294690C255A
:102B0000AC439461896802680A4302600020002196
:102B1000197002B0F0BDC046000FFFFFFF07014073
:102B2000001401400008014000040040B0B5002836
:102B300019D00446054638356878002804D10020AD
:102B40002870204600F056F802206870206801685E
:102B5000244B984209DC0122920790420BD0244A70
:102B6000904208D018E00120B0BD1F4A904202D028
:102B70001E4A904210D170229143A2680A43214616
:102B80003A3198420DDC01239B0798420FD0184B35
:102B900098420CD013460FE00A4621463A3198423B
:102BA000F1DD114B984202D0104B984217D103230C
:102BB0001B029A43236913438022934362691A4399
:102BC0000260E268C26262688262012242610A7146
:102BD0000A704A708A70CA706A700020B0BD1346CD
:102BE000EAE7C046FF070140001401400008014029
:102BF000000400407047B0B500282FD00446C06FD5
:102C0000002805D1782000212154204600F028F822
:102C10002420E067206801680125A943016020465F
:102C200000F054FB012817D0606A002802D020462B
:102C300000F081FA0920C00221684A6882434A6094
:102C400088682A22904388600868012202430A604B
:102C5000204600F0D9FA05462846B0BD0120B0BD97
:102C600080B586B000681149884201D006B080BDA9
:102C7000012041040E4AD3680B43D360116801431D
:102C80001160116801400091042005900320049018
:102C900000200390022002900C20019005200007E4
:102CA000009901A9FEF794FC06B080BD00440040E5
:102CB0002C100240F0B585B00546C06F202811D118
:102CC000012000290CD01646002A09D00120070354
:102CD000AA68BA4209D1CA0707D02A69002A04D1D2
:102CE00005B0F0BD022005B0F0BD019103932C4664
:102CF00050340020029060632120E867FEF732FD27
:102D0000049066802680A868B84202D1286900280D
:102D100001D0019F02E000270198029003990CE086
:102D2000029A10881849084029688862921C029209
:102D3000374603996088401E60806088002810D064
:102D400000918021002628463246049B00F0D8FBE3
:102D5000002814D1002FE3D03878296888627F1CBE
:102D6000E7E70091402100222846049B00F0C8FBC1
:102D70002021E9670028B3D0032005B0F0BD202052
:102D8000E867032005B0F0BDFF010000FEE700008A
:102D9000F0B585B00E460446403004902068816945
:102DA000C90606D400210F4601258269D30545D402
:102DB00048E01021C1618169890637D4711C32D085
:102DC00015460120002E6CD186030390C70302979D
:102DD000FEF7C8FC206842680499897883693B4201
:102DE00009D0324007D1202905D0416831434160E4
:102DF000FEF7B8FC054620688169890605D4FEF710
:102E0000B1FC401B1A28F6D377E081698906029F3E
:102E1000DED50BE08169890608D48169890605D46D
:102E20008169890602D481698906F3D52021C161AF
:102E30000127042101258269D30503D52B02C36133
:102E400029432F466B02560506D41A420AD1002F99
:102E50000BD1002005B0F0BDAD02C56108252943A6
:102E60001A4202D0C361022211438269920701D53E
:102E7000002282628269D20703D18269012313434F
:102E800083614268214B13404360606C0843606477
:102E9000202004994870002008708870012005B037
:102EA000F0BD810302910390C0030190019F03E0F4
:102EB000206881698906B9D4FEF754FC401BB042F2
:102EC000F6D9206842680499897883693B420BD01F
:102ED000029B1A4008D1202906D04168029A11436A
:102EE0004160FEF73FFC0546206880698006DFD41C
:102EF000FEF738FC401B1A28F6D32068816924218C
:102F0000039F01258269D30598D49BE700E800FE62
:102F1000F0B583B01C4615460E460746036899690E
:102F20003140891B4A424A410020AA4234D1611CE7
:102F30002BD0002C32D10446FEF714FC386881698E
:102F40003140891B4A424A41AA4240D08069304000
:102F5000801B41424141A942EED0204603B0F0BD62
:102F600099693140891B4A424A41AA4214D1996960
:102F70003140891B4A424A41AA420DD199693140E8
:102F8000891B4A424A41AA4206D199693140891BAC
:102F90004A424A41AA42E3D003B0F0BD01900898EA
:102FA000029006E080693040801B41424141A942C5
:102FB0001AD1FEF7D7FB0299411A3868A142F1D91C
:102FC00081693140891B4A424A41AA42EAD13846C6
:102FD0004030796C202211437964427000210170E5
:102FE0008170012003B0F0BD019803B0F0BDF0B5D1
:102FF00081B00546006880690024800622D4164608
:103000000F46002903D129E0806980061AD428469A
:1030100039463246FFF7BCFE002827D1FEF7A2FB57
:10302000811B2868B942EFD981698906ECD428460A
:103030004030696C202211436964427000210170A4
:1030400081700124204601B0F0BDFEF78BFB28689B
:1030500081698906EBD580698006F3D4002428466F
:1030600021463246FFF794FE0028EED00124204688
:1030700001B0F0BDF0B581B005460068806900245C
:10308000800716D416460F46481C19D0002F26D1AB
:103090000024284621463246FFF77AFE002838D120
:1030A000FEF760FB28688169890728D58069800759
:1030B000EED5204601B0F0BD286880698007F8D4BD
:1030C0000024E14328463246FFF762FE0028F3D091
:1030D0000124204601B0F0BD80698007E9D428466C
:1030E00039463246FFF754FE002812D1FEF73AFB6C
:1030F000811B2868B942EFD981698907ECD4284639
:103100004030696C202211436964427000210170D3
:1031100081700124204601B0F0BDFEE77047704782
:1031200080B5FEF7F7FC02480168491C016080BDCC
:10313000780000207047B0B5416ACA070CD18A07F1
:1031400014D44A071CD40A0724D4CA062CD48A06ED
:1031500034D44A063CD44CE00122520403685C6833
:103160009443826A22435A608A07EAD501221204F4
:1031700003685C689443C26A22435A604A07E2D5F6
:103180000122920403685C689443026B22435A60F4
:103190000A07DAD50122D20303685C689443426BC4
:1031A00022435A60CA06D2D50122120303689C68E2
:1031B0009443826B22439A608A06CAD50122520345
:1031C00003689C689443C26B22439A604A0610D5F8
:1031D00001221305026854689C43056C2C4354601B
:1031E0009D4206D103235B0554689C43436C2343F3
:1031F0005360090607D50121C904026853688B434F
:10320000806C18435060B0BDF0B583B004460646EC
:1032100078360027F760FEF7A5FA034620680168B4
:1032200009071FD52848009001200290410500227F
:1032300020461D4600F064F9002811D0EFF31080FD
:10324000029981F3108821680A6880239A430A60F2
:1032500080F310882020E0670320377003B0F0BDB2
:1032600020682B460068400725D5174800900125A7
:10327000A9050022204600F043F900281BD0EFF3F7
:10328000108085F3108809214901226813688B4357
:10329000136080F31088EFF3108085F310882168A5
:1032A0008A68AA438A6080F310882020B0600320D7
:1032B000377003B0F0BD2020E067B0602766676616
:1032C0003846377003B0F0BDFFFFFF01F0B581B0A5
:1032D000044601680868784A0240A06823690343ED
:1032E000606918431043E269104308600326300305
:1032F0004B688343E06818434860A5696F4B994267
:1033000002D0206A284300E028460B252D028F6852
:10331000AF4307438F606A48814214DD0027694844
:1033200081421FD0684881421CD06848814243D105
:103330006848C06C8007000F68A52F580125E80376
:10334000994213D13DE06248814205D0994233D180
:103350006048C06C000A01E05E48C06C0C25054066
:103360005D4847590125E80399422AD0824211D18C
:10337000082F00D999E0C0467F443F797F00BF44C1
:10338000043D47944D9494947600FEF769FE00281E
:1033900048D06CE0082F00D987E0C0467F443F79D1
:1033A0007F00BF4404304182478282827500FEF76D
:1033B00057FE00286CD141E010270125E80399420F
:1033C000D4D1082F71D8C0467F443F797F00BF44D5
:1033D000046C096C0F6C6C6C3800FEF741FE002821
:1033E0002FD109E03B480068C00629D5404828E0B5
:1033F000FEF750FE002824D1002556E0FEF73AFEE5
:10340000002834D10EE0FEF735FE002840D115E04B
:1034100030480068C00629D5354828E0FEF73AFE56
:10342000002824D1002540E02A480068C0062ED597
:103430002F482DE0FEF72EFE002829D1002534E08C
:103440002A4862685643B0422FD3110388422CD8D1
:10345000010E56080002002380195941FCF7AEFE08
:1034600025494118254A91421FD21BE01F484000C0
:1034700061684A08101800F04AFE0246103A1D49D9
:103480008A4212D201400007400F08430AE0174861
:1034900061684A08101800F03AFE01461039154AD2
:1034A000914202D22168C86000250020A066E06633
:1034B000284601B0F0BDC046F369FFEF0048004068
:1034C000FF4B0040004C00400050004000380140DD
:1034D00000440040001002400052000801000000BB
:1034E0000400000002000000080000000024F400B6
:1034F00000093D00F0FF000000FDFFFF00FD0F0090
:10350000F0B587B015460F460668F1693940C91B0A
:103510004A424A410021AA4225D106930C9C002C24
:1035200024D00B46611C26D1F1693940C91B4A429F
:103530004A41AA4214D1F1693940C91B4A424A4161
:10354000AA420DD1F1693940C91B4A424A41AA42F7
:1035500006D1F1693940C91B4A424A41AA42E3D027
:10356000184607B0F0BD084607B0F0BDFEF7FAF800
:10357000032007B0F0BD0293014678310391012189
:103580000191C9020491059006E0C9693940CA1B3E
:1035900051425141A9424BD1FEF7E4F80699411A34
:1035A0000323A142DCD8059801680A685207ECD5CC
:1035B000CA6912073FD4CA692646049C224234468F
:1035C000E3D01F4604980862EFF31082012181F3D3
:1035D000108809235B010598046825689D432560D0
:1035E00082F31088EFF3108281F310880598036846
:1035F0009C688C439C60059882F31088026E012AB7
:103600000BD1EFF3108281F3108801680B6810244E
:10361000A3430B60059882F310882021039B9960D7
:103620000022026682661A70D960384607B0F0BD83
:10363000029807B0F0BD08250D62EFF310810198E4
:1036400080F3108809225201059B1B681C68944373
:103650001C6081F31088EFF3108180F31088059AC5
:103660001268936883439360059B81F31088196EF9
:1036700001290CD1EFF31081012282F310881A681E
:1036800013681024A3431360059B81F31088202145
:10369000039A91600021196699661170D56007B090
:1036A000F0BD0000A6B0FEF73FFA18A80790001D75
:1036B0003421FCF7C4FE08A8001D2421FCF7BFFE3E
:1036C0000320C0029E490A688243E1200590C4009D
:1036D0001019F83008600021229105256803219017
:1036E0000691209101271F97102618960798FEF73C
:1036F0000BFD002803D0EFF3108072B6FEE70296B0
:10370000039504940797069C13940F201290149429
:103710001594169412A82146FEF78EFB002803D0BC
:10372000EFF3108072B6FEE70F940C9481204500F1
:10373000089508A8FEF762FA002803D0EFF310807E
:1037400072B6FEE701951C941B947E4801688022A6
:103750001143016001681140089108990168042231
:103760001143016001681140089108990168079EA2
:103770003143016000683040089008981A94112085
:1037800000041990029818900398000718A9FDF7F3
:103790001FFF0725284621462246FEF713FA284632
:1037A000FEF704FA6848694901600499021D52C293
:1037B000046144618461C4610462FEF719F8002861
:1037C00003D0EFF3108072B6FEE75F480021FDF7EB
:1037D000CDFF002803D0EFF3108072B6FEE75A4801
:1037E00000242146FDF7E3FF002803D0EFF310800B
:1037F00072B6FEE756485749B20714C004604160EC
:103800008460C4601B941A94199413941294083819
:10381000FEF78AFF002803D0EFF3108072B6FEE7B0
:10382000300318904A4818A9FFF708F8002803D079
:10383000EFF3108072B6FEE74548FFF777F90028EE
:1038400003D0EFF3108072B6FEE7414812A9FEF7ED
:103850003DFF002803D0EFF3108072B6FEE70B9413
:103860000A94099608943A4808A92246FFF794F862
:10387000002803D0EFF3108072B6FEE736480C2123
:10388000364A04624462059B5B021CC004604460CB
:103890008160C46004610C38FFF7ADF9002803D0E3
:1038A000EFF3108072B6FEE7274D284600F068F867
:1038B0002046214600F044FA294E06CE29A00123D5
:1038C000083E00F005FC0C21204600F039FA28469D
:1038D00000F03AFA274F3C60019C2046F230FDF799
:1038E00039FE00252846294600F02AFA28462946AE
:1038F00000F026FA3869FCF7A5FE02460B463D4665
:10390000143528461C49FCF7E1FC06CE0123284665
:10391000083E00F0DDFB0C4800F016FA3869FCF7B1
:1039200091FE02460B463D46323528461349FCF7C8
:10393000CDFC1E22642308482946FFF7BBF9CCE7DB
:10394000007000402C100240D0040020007800409D
:1039500024050020FFFF0000640500200044004013
:10396000080000205374617274696E67202E2E2E39
:1039700000000000780000201E52000810520008CD
:10398000F0B5A3B007466420FDF7E4FD22A8AE2100
:1039900001700A240126009001960294782120915A
:1039A0000025384621972A461F953346FDF774FFB8
:1039B0001D9022A820211991017000900196029477
:1039C0001E943846209F39462A463346FDF764FF49
:1039D0001C9022A81021169101700090019602946B
:1039E000219C204639462A463346FDF755FF1B9059
:1039F00022A8B0210170009001961E9D02952046DC
:103A000039461F9A3346FDF747FF1A9022A8C8216E
:103A10000170009001960295204639461F9D2A4666
:103A20003346FDF739FF189022A8057000900196E3
:103A30001E9C0294219839462A463346FDF72CFFF6
:103A4000179022A81699017000900196029421986F
:103A500039462A463346FDF71FFF169022A840211B
:103A60000170009001960294219839462A462C460E
:103A70003346FDF711FF159022A8812101700090B7
:103A800001961E980290219839463D4622463346BB
:103A9000FDF702FF149022A8FF210170009001960B
:103AA0001E9C0294219F384629461F9D2A46334674
:103AB000FDF7F2FE139022A8A1210170009001965B
:103AC00002943846209F39462A463346FDF7E4FEE5
:103AD000129022A8A62101700090019602942198CC
:103AE00039463C462A463346FDF7D6FE119022A8B9
:103AF000A8210170009001961E980290219F3846DF
:103B000021462A463346FDF7C7FE109022A83F21E2
:103B10000170009001961E9C02943846209F394601
:103B20002A463346FDF7B8FE0F9022A8A421017063
:103B3000009001960294219839462A463346FDF7B3
:103B4000ABFE0E9022A8D321017000900196029442
:103B5000219F384620992A463346FDF79DFE0D9059
:103B600022A82A46057000900196029438463D46E8
:103B7000209F39463346FDF78FFE0C9022A8D521B1
:103B80000170009001960294284639463D461F9ADE
:103B90003346FDF781FE0B9022A8F02101700090C2
:103BA00001960294219F384629461F9D2A46334696
:103BB000FDF772FE0A9022A8D921017000900196AB
:103BC00002943846209F39462A463346FDF764FE64
:103BD000099022A822210170009001960294219858
:103BE00039462A463346FDF757FE089022A8DA21C7
:103BF0000170009001960294219F3846209C214636
:103C00002A463346FDF748FE079022A8122101708C
:103C1000009001961E9802903846274621462A4673
:103C20003346FDF739FE069022A8DB210170009093
:103C300001961E9C0294219839463D461F9A3346B0
:103C4000FDF72AFE059022A81999017000900196AF
:103C50000294219F384629461F9A3346FDF71CFEE1
:103C6000199022A88D21017000900196254602949A
:103C700038463C46209F39461F9A3346FDF70CFED6
:103C8000049022A81421017000900196029520460C
:103C90001F9C394622463346FDF7FEFD22A9AF227E
:103CA0000A700091019602951D991C9A51181B9A51
:103CB00089181A9A8918189A8918179A8918169AB9
:103CC0008918159A8918149A8918139A8918129ABA
:103CD0008918119A8918109A89180F9A89180E9ABA
:103CE00089180D9A89180C9A89180B9A89180A9ABA
:103CF0008918099A8918089A8918079A8918069ABA
:103D00008918059A8918199A8918049A89180F1818
:103D100021982099254622463346FDF7BDFDC7422E
:103D20000BD101208102E948FCF789FB219800F0C2
:103D30000BF8E5482E4685804580304623B0F0BD1F
:103D4000E14A918050807047F0B58BB00790002514
:103D5000DE4F039505972846503808A908700A20B9
:103D60000690012600910196029078210491079C0B
:103D70002046039F3A463346FDF78EFD09A807709B
:103D800000900196069802902046049C21463A46EF
:103D90003346FDF781FD0AA81021017000900196BD
:103DA00006980290079821463A46059F3346FDF74C
:103DB00073FD6420802100970191029040220798B2
:103DC00021463346FDF768FD80376D1C082DC1D1B3
:103DD0000BB0F0BDF0B595B01493BB4B5D88CFB27E
:103DE0007E1900247F2E00D96AE112959B880791E5
:103DF000090ACDB20693E9183F2900D960E104927F
:103E00000090002D00D158E1149948424841099092
:103E1000491E484248411390AB480178C9B2002975
:103E200001D0099813904A1E9141002F00D144E11E
:103E3000099848400990009820386843039003216E
:103E4000079A0A40B81A0A90781E02901F20C001F3
:103E50000F90012041030B9181030C910190C0034D
:103E60000D90002707920E96059507E0119A1143D1
:103E700019547F1C059DAF4200D11EE106983918E8
:103E8000C8B23F28F5D80398089738184000049A1C
:103E9000145A08010F9A1040149007220A40019802
:103EA0009040FF2111904140109102990025032973
:103EB0001DD207980028089FDBD012996B1880212B
:103EC0001E460E400D9FEF40DAB2274200D199E026
:103ED000002E079800D0A4E0149812187B48865C46
:103EE000139F002F00D198E0119F3E4397E0129B53
:103EF00006E0119F3A4342542D1D0A99A942D8D099
:103F00005B1980211E460E400D9FEF40DAB227421A
:103F10000BD0002E15D1149812186C48865C139F94
:103F2000002F0BD0119F3E430AE0002E09D11498B8
:103F300012186648865C099F002FF3D1109F3E40FF
:103F400086545E1C0C9FEF40F2B20E4027420BD00D
:103F5000002E15D1149812185C48865C139F002F10
:103F60000BD0119F3E430AE0002E09D1149812187D
:103F70005648865C099F002FF3D1109F3E4086541F
:103F80009E1C0B9FEF40F2B20E4027420BD0002E3A
:103F900015D1149812184D48865C139F002F0BD032
:103FA000119F3E430AE0002E09D114981218474889
:103FB000865C099F002FF3D1109F3E408654DA1C87
:103FC00011400F9B8033EB40D2B223420BD000292B
:103FD0000E9E129B90D1149811183C48425C139F7E
:103FE000002F86D10BE000290E9E129B84D11498DD
:103FF00011183648425C099F002F00D079E7109FC6
:104000003A4078E7002E07980BD1149812182F48E1
:10401000865C099F002F00D066E7109F3E408654C3
:10402000079801280E9E089F00D122E75E1C0C9F76
:10403000EF40F2B20E4027420CD0002E079817D165
:10404000149812182148865C139F002F0CD0119FE2
:104050003E430BE0002E07980AD1149812181B4813
:10406000865C099F002FF2D1109F3E40865407982E
:1040700002280E9E089F00D1FBE69A1C11400B9B64
:10408000EB40D2B223420AD0002900D0F1E61498C6
:1040900010180E4B195C139A002A0BD0E6E6002983
:1040A00000D0E6E614981018084B195C099A002A0B
:1040B00000D0DBE6109A1140DAE603484680009C07
:1040C000204615B0F0BDC046C8000020D00000203A
:1040D000F0B581B00E46074600780021002813D0C5
:1040E0001C4615460091C0B231462A462346FFF7CA
:1040F00071FE01463878814207D178787F1C00280C
:10410000F1D1009801B0F0BD084601B0F0BD430800
:104110008B421AD3002203098B4279D3030A8B42C4
:104120005ED3030B8B4242D3030C8B4227D309028D
:10413000FF2212BA030C8B4202D31212090203D0DF
:10414000030B8B4233D31AE0D3E0411A8041401C69
:10415000704703460B4371D443088B42F5D30022CA
:1041600003098B4254D3030A8B4239D3030B8B428E
:104170001DD3030C8B4202D394466EE0090AC30B95
:104180008B4201D3CB03C01A5241830B8B4201D324
:104190008B03C01A5241430B8B4201D34B03C01A0D
:1041A0005241030B8B4201D30B03C01A5241C30A85
:1041B0008B4201D3CB02C01A5241830A8B4201D3F6
:1041C0008B02C01A5241430A8B4201D34B02C01AE0
:1041D0005241030A8B4201D30B02C01A5241CDD285
:1041E000C3098B4201D3CB01C01A524183098B42D0
:1041F00001D38B01C01A524143098B4201D34B01B9
:10420000C01A524103098B4201D30B01C01A52411B
:10421000C3088B4201D3CB00C01A524183088B42A2
:1042200001D38B00C01A524143088B4201D34B008B
:10423000C01A5241411A524110007047CA0F00D0B3
:104240004942031000D34042534000229C460309D8
:104250008B422DD3030A8B4212D38901FC2212BA5E
:10426000030A8B420CD3890192118B4208D3890136
:1042700092118B4204D3890137D0921100E0890951
:10428000C3098B4201D3CB01C01A524183098B422F
:1042900001D38B01C01A524143098B4201D34B0118
:1042A000C01A524103098B4201D30B01C01A52417B
:1042B000C3088B4201D3CB00C01A524183088B4202
:1042C00001D38B00C01A5241D9D243088B4201D38B
:1042D0004B00C01A5241411A00D2014652411046C9
:1042E00063465B1000D34042704763465B1000D3C7
:1042F000404201B50021004201D0C9430846C046F2
:10430000C04602BDF8B5040C8BB2264682B25E43AD
:10431000104658430D0C370C360400218019164600
:1043200079416E43370C36048019264679416E4335
:104330008919F8BD4900CA020243100000D00420C8
:104340004A0D01D001221043044A490D914201D186
:1043500002210843012800D105207047FF07000013
:1043600030380A2801D20120704700207047000031
:1043700010B500290AD00878002807D005487844ED
:10438000FDF784F8002801D0002010BD02487844D1
:1043900010BD0000CE0E0000C60E000003B402489F
:1043A0007844844603BC604751C6FFFF8182838402
:1043B00085868788898B8C8D8E8F91929395969721
:1043C000999A9C9D9FA0A2A3A5A7A8AAACAEB0B2A3
:1043D000B3B5B7B9BCBEC0C2C5C7C9CCCED1D4D79E
:1043E000D9DCDFE2E6E9ECF0F3F7FAFE0240000088
:1043F000000000A00000000005400000000000C810
:10440000000000000C4000000000409C0000000084
:10441000194000000020BCBE000000003440000035
:10442000BFC91B8E00000004B5400000504BCFD028
:104430006607E2CF010000006C4100003E8251AAF5
:10444000DFEEA73401000000D9420000DCB5A0E295
:104450003A301F97FFFFFFFFB4450000FD25A0C8BD
:10446000E9A3C14FFFFFFFFFFF3F000000000080F6
:1044700000000000FF3F000000000080000000007E
:104480000000000000000000010203040607080904
:104490000000000001020304000000000000000012
:1044A000000000000000000000000000000000000C
:1044B0000000000000000000000000000000000CF0
:1044C000000C000C000C000C000C000C000C000C8C
:1044D000000C000C0000000C000C000000000000AC
:1044E0000000001B001B001B001B001B0000000045
:1044F00000000000000000000000000000000000BC
:104500000000000000008019801980198019C07F08
:10451000C07F80190033C07FC07F00330033003379
:1045200000330000000000000000001E003F807506
:1045300080650074003C001E000780058065806572
:104540008075003F001E00040004000000000070A1
:1045500000D840D8C0D880D900730006000C801B5A
:10456000C036C066C046C0068003000000000000E0
:104570000000001E003F003300330033001E000C1B
:10458000C03CC066806380618063C03E801C0000C8
:10459000000000000000000C000C000C000C000CDF
:1045A000000000000000000000000000000000000B
:1045B0000000000000000000800000010003000671
:1045C00000060004000C000C000C000C000C000C99
:1045D0000004000600060003000180000020001017
:1045E0000018000C000C000400060006000600067F
:1045F000000600060004000C000C0018001000204B
:104600000000000C002D003F001E003300000000E1
:10461000000000000000000000000000000000009A
:1046200000000000000000000000000C000C000C66
:10463000000CC0FFC0FF000C000C000C000C0000C0
:10464000000000000000000000000000000000006A
:10465000000000000000000000000000000000005A
:104660000000000C000C0004000400080000000022
:104670000000000000000000000000000000001E1C
:10468000001E00000000000000000000000000000C
:10469000000000000000000000000000000000001A
:1046A00000000000000000000000000C000C0000F2
:1046B00000000000000000030003000300060006E5
:1046C00000060006000C000C000C000C001800187E
:1046D00000180000000000000000001E003F003332
:1046E000806180618061806D806D806180618061AA
:1046F0000033003F001E0000000000000000000624
:10470000000E001E00360026000600060006000609
:10471000000600060006000600060000000000007B
:104720000000001E003F80738061806180010003F3
:104730000006000C001800300060807F807F0000C1
:10474000000000000000001C003E00630063000346
:10475000000E000E00038001800180618073003F25
:10476000001E00000000000000000006000E000E09
:10477000001E001E0016003600360066807F807F17
:104780000006000600060000000000000000007F98
:10479000007F006000600060006E007F8063800129
:1047A000800180618073003F001E00000000000057
:1047B0000000001E003F803380610060006E007FBB
:1047C00080738061806180618033003F001E000043
:1047D000000000000000807F807F80010003000354
:1047E00000060006000C000C000C00080018001861
:1047F00000180000000000000000001E003F806361
:10480000806180610021001E003F806180618061C5
:104810008061003F001E0000000000000000001E3C
:10482000003F00738061806180618073803F801DE4
:10483000800180610073003F001E00000000000046
:1048400000000000000000000000000C000C000050
:1048500000000000000000000000000C000C000040
:104860000000000000000000000000000000000048
:10487000000C000C00000000000000000000000C14
:10488000000C00040004000800000000000000000C
:1048900080008003000E003800600038000E8003A6
:1048A0008000000000000000000000000000000088
:1048B000000000000000807F807F00000000807FFB
:1048C000807F0000000000000000000000000000E9
:1048D000000000000000000000400070001C000705
:1048E00080010007001C0070004000000000000074
:1048F000000000000000001F803FC071C060C000C9
:10490000C00180030007000E000C000C0000000C2A
:10491000000C0000000000000000001E003F80317D
:1049200080718063806F806D806D806F80670060B4
:104930000032003E001C0000000000000000000EDD
:10494000000E001B001B001B001B80318031803FCC
:10495000803F8031C060C060C06000000000000087
:104960000000007C007E0063006300630063007E43
:10497000007E0063806180618063007F007E0000B4
:10498000000000000000001E003F803180610060D8
:104990000060006000600060006080618031003F66
:1049A000001E0000000000000000007C007F00638B
:1049B000806380618061806180618061806100636B
:1049C0000063007E007C0000000000000000807F8B
:1049D000807F0060006000600060007F007F0060FA
:1049E000006000600060807F807F000000000000A9
:1049F0000000807F807F0060006000600060007FBA
:104A0000007F0060006000600060006000600000E7
:104A1000000000000000001E003F80318061006047
:104A20000060006080638063806180618031803FCE
:104A3000001E0000000000000000806180618061B5
:104A4000806180618061807F807F80618061806122
:104A50008061806180610000000000000000003F74
:104A6000003F000C000C000C000C000C000C000CB3
:104A7000000C000C000C003F003F00000000000094
:104A8000000080018001800180018001800180019F
:104A900080018001806180618073003F001E000002
:104AA000000000000000C0608061006300660066D6
:104AB000006C0078007C00660066006380618061A5
:104AC000C0600000000000000000006000600060A6
:104AD00000600060006000600060006000600060D6
:104AE0000060807F807F0000000000000000C07137
:104AF000C071C07BC07AC06AC06AC06EC064C0604A
:104B0000C060C060C060C060C06000000000000005
:104B1000000080718071807980798079806D806DEE
:104B2000806D806580678067806780638063000038
:104B3000000000000000001E003F00338061806123
:104B40008061806180618061806180610033003FAD
:104B5000001E0000000000000000007E007F806357
:104B60008061806180618063007F007E0060006002
:104B70000060006000600000000000000000001EF7
:104B8000003F00338061806180618061806180616D
:104B9000806580670033803F401E000000000000F9
:104BA0000000007E007F8063806180618063007F01
:104BB000007E00660063006380618061C060000069
:104BC000000000000000000E001F80318031003026
:104BD0000038001E00078003806180618031003F43
:104BE000001E0000000000000000C0FFC0FF000C1D
:104BF000000C000C000C000C000C000C000C000C55
:104C0000000C000C000C000000000000000080619F
:104C1000806180618061806180618061806180618C
:104C2000806180618073003F001E00000000000072
:104C30000000C060C060C060803180318031001BE6
:104C4000001B001B001B000E000E000E00040000E5
:104C5000000000000000C0C0C0C0C0C0C0C0C0C0D4
:104C6000C0CC804C804C805E8052805280738061CA
:104C700080610000000000000000C0C08060806112
:104C80000033003B001E000C000C001E001F003B08
:104C900080718061C0C00000000000000000C0C042
:104CA0008061806100330033001E001E000C000C88
:104CB000000C000C000C000C000C000000000000B8
:104CC0000000803F803F8001000300030006000CCD
:104CD000000C0018001800300060807F807F00000A
:104CE00000000000000F000F000C000C000C000C76
:104CF000000C000C000C000C000C000C000C000C54
:104D0000000C000C000F000F000000180018001825
:104D1000000C000C000C000C00060006000600064B
:104D2000000300030003000000000000001E001E3E
:104D30000006000600060006000600060006000643
:104D4000000600060006000600060006001E001E03
:104D50000000000C000C001E0012003300338061C4
:104D60008061000000000000000000000000000062
:104D70000000000000000000000000000000000033
:104D80000000000000000000000000000000000023
:104D900000000000E0FF0000000000380018000CD8
:104DA0000000000000000000000000000000000003
:104DB00000000000000000000000000000000000F3
:104DC000000000000000001F803F80618001801F04
:104DD000803F80618063807FC03800000000000059
:104DE00000000060006000600060006E007F807363
:104DF00080618061806180618073007F006E00004F
:104E00000000000000000000000000000000001E84
:104E1000003F807380610060006080618073003FAC
:104E2000001E0000000000000000800180018001E1
:104E30008001801D803F807380618061806180611E
:104E40008073803F801D0000000000000000000013
:104E5000000000000000001E003F00738061807FA2
:104E6000807F00608071003F001E00000000000095
:104E70000000C007C00F000C000C807F807F000C7A
:104E8000000C000C000C000C000C000C000C0000CE
:104E9000000000000000000000000000801D803FB6
:104EA000807380618061806180618073803F801D3C
:104EB00080018063007F003E0000006000600060B1
:104EC0000060006F807F807180618061806180619F
:104ED0008061806180610000000000000000000629
:104EE000000600000000003E003E0006000600062E
:104EF0000006000600060006000600000000000094
:104F00000006000600000000003E003E000600060D
:104F10000006000600060006000600060006004621
:104F2000007E003C00000060006000600060806166
:104F300000630066006C007C0076006300638061A3
:104F4000C0600000000000000000003E003E0006BF
:104F50000006000600060006000600060006000621
:104F6000000600060006000000000000000000002F
:104F700000000000000080DDC0FFC0CEC0CCC0CC6F
:104F8000C0CCC0CCC0CCC0CCC0CC00000000000065
:104F900000000000000000000000006F807F8071B2
:104FA00080618061806180618061806180610000DA
:104FB0000000000000000000000000000000001ED3
:104FC000003F807380618061806180618073003FF9
:104FD000001E0000000000000000000000000000B3
:104FE000006E007F8073806180618061806180736A
:104FF000007F006E00600060006000600000000044
:1050000000000000801D803F8073806180618061AE
:1050100080618073803F801D80018001800180015C
:10502000000000000000000000000067803F003921
:105030000030003000300030003000300030000020
:105040000000000000000000000000000000001E42
:10505000803F80610060007F803F80018061007F31
:10506000001E000000000000000000000008001802
:105070000018007F007F00180018001800180018A2
:105080000018801F800F00000000000000000000DA
:1050900000000000000080618061806180618061AB
:1050A000806180618063807F803D0000000000009F
:1050B00000000000000000000000C060803180316E
:1050C0008031001B001B001B000E000E00060000BC
:1050D000000000000000000000000000000080DD73
:1050E00080DD80DD005500550055007700770022F7
:1050F000002200000000000000000000000000008E
:105100000000806100330033001E000C000C001E04
:105110000033003380610000000000000000000048
:105120000000000080618061803100330033001B8B
:10513000001B001B000E000E000E001C007C007007
:1051400000000000000000000000C07FC07F800160
:1051500000030006000C00180030C07FC07F000074
:10516000000000008003800700060006000600061D
:105170000006000E001C001C000E000600060006C3
:1051800000060006800780030006000600060006F1
:1051900000060006000600060006000600060006DF
:1051A0000006000600060006000600060038003C67
:1051B000000C000C000C000C000C000E0007000797
:1051C000000E000C000C000C000C000C003C003821
:1051D0000000000000000000000000000000803817
:1051E000807F004700000000000000000000000079
:1051F00000000000030406080C1018203000000016
:105200000000000004000000020000000800000090
:1052100052504D3D252E3366202020200A0052504A
:105220004D3D252E336620202020000068520008C6
:10523000000000201800000004010008805200084F
:1052400018000020D80B0000200100081C000000FE
:1052500043000000F8FFFFFF0C0000000E000000FC
:105260000F0000002E0000000100000004000000FC
:105270000B1200009844000800002000000000000D
:04000005080000C12E
:00000001FF
